{
  "abi": [
    {
      "inputs": [
        {
          "internalType": "bytes",
          "name": "data",
          "type": "bytes"
        },
        {
          "internalType": "uint256",
          "name": "start",
          "type": "uint256"
        },
        {
          "internalType": "uint256",
          "name": "end",
          "type": "uint256"
        }
      ],
      "name": "Slice_OutOfBounds",
      "type": "error"
    },
    {
      "anonymous": false,
      "inputs": [
        {
          "indexed": true,
          "internalType": "ResourceId",
          "name": "tableId",
          "type": "bytes32"
        },
        {
          "indexed": false,
          "internalType": "bytes32[]",
          "name": "keyTuple",
          "type": "bytes32[]"
        },
        {
          "indexed": false,
          "internalType": "uint48",
          "name": "start",
          "type": "uint48"
        },
        {
          "indexed": false,
          "internalType": "bytes",
          "name": "data",
          "type": "bytes"
        }
      ],
      "name": "Store_SpliceStaticData",
      "type": "event"
    },
    {
      "inputs": [],
      "name": "_msgSender",
      "outputs": [
        {
          "internalType": "address",
          "name": "sender",
          "type": "address"
        }
      ],
      "stateMutability": "view",
      "type": "function"
    },
    {
      "inputs": [],
      "name": "_msgValue",
      "outputs": [
        {
          "internalType": "uint256",
          "name": "value",
          "type": "uint256"
        }
      ],
      "stateMutability": "pure",
      "type": "function"
    },
    {
      "inputs": [],
      "name": "_world",
      "outputs": [
        {
          "internalType": "address",
          "name": "",
          "type": "address"
        }
      ],
      "stateMutability": "view",
      "type": "function"
    },
    {
      "inputs": [
        {
          "internalType": "address",
          "name": "collection",
          "type": "address"
        },
        {
          "internalType": "uint32",
          "name": "tokenid",
          "type": "uint32"
        }
      ],
      "name": "claim",
      "outputs": [],
      "stateMutability": "nonpayable",
      "type": "function"
    },
    {
      "inputs": [
        {
          "internalType": "bytes4",
          "name": "interfaceId",
          "type": "bytes4"
        }
      ],
      "name": "supportsInterface",
      "outputs": [
        {
          "internalType": "bool",
          "name": "",
          "type": "bool"
        }
      ],
      "stateMutability": "pure",
      "type": "function"
    }
  ],
  "bytecode": {
    "object": "0x608060405234801561001057600080fd5b50611149806100206000396000f3fe608060405234801561001057600080fd5b50600436106100675760003560e01c806345ec93541161005057806345ec9354146100c1578063c6a56990146100d4578063e1af802c146100e957600080fd5b806301ffc9a71461006c578063119df25f14610094575b600080fd5b61007f61007a366004610db0565b6100f1565b60405190151581526020015b60405180910390f35b61009c61018a565b60405173ffffffffffffffffffffffffffffffffffffffff909116815260200161008b565b604051601f19360135815260200161008b565b6100e76100e2366004610e17565b610199565b005b61009c6102ec565b60007fffffffff0000000000000000000000000000000000000000000000000000000082167fb421288000000000000000000000000000000000000000000000000000000000148061018457507fffffffff0000000000000000000000000000000000000000000000000000000082167f01ffc9a700000000000000000000000000000000000000000000000000000000145b92915050565b60006101946102f6565b905090565b6101a161018a565b6040517f6352211e00000000000000000000000000000000000000000000000000000000815263ffffffff8316600482015273ffffffffffffffffffffffffffffffffffffffff91821691841690636352211e90602401602060405180830381865afa158015610215573d6000803e3d6000fd5b505050506040513d601f19601f820116820180604052508101906102399190610e59565b73ffffffffffffffffffffffffffffffffffffffff16146102bb576040517f08c379a000000000000000000000000000000000000000000000000000000000815260206004820152600d60248201527f696e76616c6964206f776e65720000000000000000000000000000000000000060448201526064015b60405180910390fd5b6102e86102e26102c961018a565b73ffffffffffffffffffffffffffffffffffffffff1690565b82610328565b5050565b600061019461044f565b7fffffffffffffffffffffffffffffffffffffffffffffffffffffffffffffffcc36013560601c806103255750335b90565b60408051600180825281830190925260009160208083019080368337019050509050828160008151811061035e5761035e610e76565b602090810291909101810191909152604080517f746200000000000000000000000000000000000000000000000000000000000081840152600060228201527f436c61696d7300000000000000000000000000000000000000000000000000006030820152815180820390930183528101905261044a906103de90610ea5565b6040517fffffffff0000000000000000000000000000000000000000000000000000000060e086901b166020820152839060009060240160408051601f198184030181529190527e0401000400000000000000000000000000000000000000000000000000000061049b565b505050565b7f629a4c26e296b22a8e0856e9f6ecb2d1008d7e00081111962cd175fa7488e1755460009073ffffffffffffffffffffffffffffffffffffffff1680610496573391505090565b919050565b60006104a561044f565b90503073ffffffffffffffffffffffffffffffffffffffff8216036104d6576104d1868686868661056b565b610563565b6040517f390baae000000000000000000000000000000000000000000000000000000000815273ffffffffffffffffffffffffffffffffffffffff82169063390baae0906105309089908990899089908990600401610f4d565b600060405180830381600087803b15801561054a57600080fd5b505af115801561055e573d6000803e3d6000fd5b505050505b505050505050565b610580858561057a8487610587565b856105ca565b5050505050565b600080805b8360ff168110156105c2576105ae60ff601b83900360080287901c1683610fc3565b9150806105ba81610fd6565b91505061058c565b509392505050565b60006105d68585610848565b9050847f8c0b5119d4cec7b284c6b1b39252a03d1e2f2d7451a5895562524c113bb952be85858560405161060c93929190610ff0565b60405180910390a27f7462000000000000000000000000000000000000000000000000000000000000857fffff00000000000000000000000000000000000000000000000000000000000016146106635750610842565b600061066e8661089e565b905060005b815181101561074d57600082828151811061069057610690610e76565b602002602001015190506106bc6004826affffffffffffffffffffff19166109a190919063ffffffff16565b1561073a576040517f964f667d000000000000000000000000000000000000000000000000000000008152606082901c9063964f667d90610707908b908b908b908b9060040161102d565b600060405180830381600087803b15801561072157600080fd5b505af1158015610735573d6000803e3d6000fd5b505050505b508061074581610fd6565b915050610673565b50610761828565ffffffffffff16856109bf565b60005b815181101561083e57600082828151811061078157610781610e76565b602002602001015190506107ad6008826affffffffffffffffffffff19166109a190919063ffffffff16565b1561082b576040517fa8ba8721000000000000000000000000000000000000000000000000000000008152606082901c9063a8ba8721906107f8908b908b908b908b9060040161102d565b600060405180830381600087803b15801561081257600080fd5b505af1158015610826573d6000803e3d6000fd5b505050505b508061083681610fd6565b915050610764565b5050505b50505050565b6000828260405160200161085d929190611071565b60408051601f1981840301815291905280516020909101207f86425bff6b57326c7859e89024fe4f238ca327a1ae4a230180dd2f0e88aaa7d9189392505050565b604080516001808252818301909252606091600091906020808301908036833701905050905082816000815181106108d8576108d8610e76565b602090810291909101810191909152604080517f7462000000000000000000000000000000000000000000000000000000000000818401527f73746f726500000000000000000000000000000000000000000000000000000060228201527f53746f7265486f6f6b7300000000000000000000000000000000000000000000603082015281518082039093018352810190526000906109829061097a90610ea5565b8360006109cf565b90506109996109948260008451610a09565b610a99565b949350505050565b60008160ff16826109b28560581c90565b1660ff1614905092915050565b61044a8383602084018451610ab1565b60606109996109df858585610b71565b610a02846109ed8888610bf1565b9060ff166028026038011c64ffffffffff1690565b6000610c04565b6000818311158015610a1c575083518211155b610a58578383836040517f23230fa30000000000000000000000000000000000000000000000000000000081526004016102b2939291906110ac565b60208401610a668482610fc3565b90506000610a7485856110d1565b6fffffffffffffffffffffffffffffffff1660809290921b9190911795945050505050565b60606000610aaa8360156000610c27565b9392505050565b8215610b2b5760208310610adb57602083048401935060208381610ad757610ad76110e4565b0692505b8215610b2b5760208390036000600019600884021c1990506008850281811c91508451811c9050811987541682821617875550818311610b1c575050610842565b50600194909401939182019190035b5b60208110610b4d5781518455600190930192602090910190601f1901610b2c565b8015610842576000600019600883021c198554845182169119161785555050505050565b60008383604051602001610b86929190611071565b604051602081830303815290604052805190602001208260f81b7effffffffffffffffffffffffffffffffffffffffffffffffffffffffffffff19167f3b4102da22e32d82fc925482184f16c09fd4281692720b87d124aef6da48a0f1181860001c90509392505050565b6000610aaa610c008484610ca2565b5490565b60405160208101601f19603f85840101166040528382526105c285858584610cf8565b60606000610c358560801c90565b90506fffffffffffffffffffffffffffffffff85166000858281610c5b57610c5b6110e4565b04905060405193506020840160208202810160405281855260005b82811015610c96578451871c825293870193602090910190600101610c76565b50505050509392505050565b60008282604051602001610cb7929190611071565b60408051601f1981840301815291905280516020909101207f14e2fcc58e58e68ec7edc30c8d50dccc3ce2714a623ec81f46b6a63922d76569189392505050565b8115610d6a5760208210610d2257602082048401935060208281610d1e57610d1e6110e4565b0691505b8115610d6a5760208290036000600019600883021c1990508554600885021b811984511682821617845250818511610d5b575050610842565b50600194909401939283900392015b5b60208310610d8c5783548152600190930192601f1990920191602001610d6b565b8215610842576000600019600885021c198251865482169119161782525050505050565b600060208284031215610dc257600080fd5b81357fffffffff0000000000000000000000000000000000000000000000000000000081168114610aaa57600080fd5b73ffffffffffffffffffffffffffffffffffffffff81168114610e1457600080fd5b50565b60008060408385031215610e2a57600080fd5b8235610e3581610df2565b9150602083013563ffffffff81168114610e4e57600080fd5b809150509250929050565b600060208284031215610e6b57600080fd5b8151610aaa81610df2565b7f4e487b7100000000000000000000000000000000000000000000000000000000600052603260045260246000fd5b80516020808301519190811015610ec6576000198160200360031b1b821691505b50919050565b600081518084526020808501945080840160005b83811015610efc57815187529582019590820190600101610ee0565b509495945050505050565b6000815180845260005b81811015610f2d57602081850181015186830182015201610f11565b506000602082860101526020601f19601f83011685010191505092915050565b85815260a060208201526000610f6660a0830187610ecc565b60ff861660408401528281036060840152610f818186610f07565b9150508260808301529695505050505050565b7f4e487b7100000000000000000000000000000000000000000000000000000000600052601160045260246000fd5b8082018082111561018457610184610f94565b60006000198203610fe957610fe9610f94565b5060010190565b6060815260006110036060830186610ecc565b65ffffffffffff8516602084015282810360408401526110238185610f07565b9695505050505050565b8481526080602082015260006110466080830186610ecc565b65ffffffffffff8516604084015282810360608401526110668185610f07565b979650505050505050565b82815260006020808301845182860160005b8281101561109f57815184529284019290840190600101611083565b5091979650505050505050565b6060815260006110bf6060830186610f07565b60208301949094525060400152919050565b8181038181111561018457610184610f94565b7f4e487b7100000000000000000000000000000000000000000000000000000000600052601260045260246000fdfea26469706673582212205af8185501927a6974764c1fbd1cce856ce7418b602c0753519311803ed9845164736f6c63430008150033",
    "linkReferences": {}
  },
  "methodIdentifiers": {
    "_msgSender()": "119df25f",
    "_msgValue()": "45ec9354",
    "_world()": "e1af802c",
    "claim(address,uint32)": "c6a56990",
    "supportsInterface(bytes4)": "01ffc9a7"
  },
  "id": 138
}