{
  "abi": [
    {
      "inputs": [
        {
          "internalType": "bytes",
          "name": "data",
          "type": "bytes"
        },
        {
          "internalType": "uint256",
          "name": "start",
          "type": "uint256"
        },
        {
          "internalType": "uint256",
          "name": "end",
          "type": "uint256"
        }
      ],
      "name": "Slice_OutOfBounds",
      "type": "error"
    },
    {
      "anonymous": false,
      "inputs": [
        {
          "indexed": true,
          "internalType": "ResourceId",
          "name": "tableId",
          "type": "bytes32"
        },
        {
          "indexed": false,
          "internalType": "bytes32[]",
          "name": "keyTuple",
          "type": "bytes32[]"
        },
        {
          "indexed": false,
          "internalType": "uint48",
          "name": "start",
          "type": "uint48"
        },
        {
          "indexed": false,
          "internalType": "bytes",
          "name": "data",
          "type": "bytes"
        }
      ],
      "name": "Store_SpliceStaticData",
      "type": "event"
    },
    {
      "inputs": [],
      "name": "_msgSender",
      "outputs": [
        {
          "internalType": "address",
          "name": "sender",
          "type": "address"
        }
      ],
      "stateMutability": "view",
      "type": "function"
    },
    {
      "inputs": [],
      "name": "_msgValue",
      "outputs": [
        {
          "internalType": "uint256",
          "name": "value",
          "type": "uint256"
        }
      ],
      "stateMutability": "pure",
      "type": "function"
    },
    {
      "inputs": [],
      "name": "_world",
      "outputs": [
        {
          "internalType": "address",
          "name": "",
          "type": "address"
        }
      ],
      "stateMutability": "view",
      "type": "function"
    },
    {
      "inputs": [
        {
          "internalType": "address",
          "name": "collection",
          "type": "address"
        },
        {
          "internalType": "uint32",
          "name": "tokenid",
          "type": "uint32"
        }
      ],
      "name": "claim",
      "outputs": [],
      "stateMutability": "nonpayable",
      "type": "function"
    },
    {
      "inputs": [
        {
          "internalType": "bytes4",
          "name": "interfaceId",
          "type": "bytes4"
        }
      ],
      "name": "supportsInterface",
      "outputs": [
        {
          "internalType": "bool",
          "name": "",
          "type": "bool"
        }
      ],
      "stateMutability": "pure",
      "type": "function"
    }
  ],
  "bytecode": {
    "object": "0x608060405234801561001057600080fd5b50611679806100206000396000f3fe608060405234801561001057600080fd5b50600436106100675760003560e01c806345ec93541161005057806345ec9354146100c1578063c6a56990146100d4578063e1af802c146100e957600080fd5b806301ffc9a71461006c578063119df25f14610094575b600080fd5b61007f61007a366004611274565b6100f1565b60405190151581526020015b60405180910390f35b61009c61018a565b60405173ffffffffffffffffffffffffffffffffffffffff909116815260200161008b565b604051601f19360135815260200161008b565b6100e76100e23660046112db565b610199565b005b61009c610382565b60007fffffffff0000000000000000000000000000000000000000000000000000000082167fb421288000000000000000000000000000000000000000000000000000000000148061018457507fffffffff0000000000000000000000000000000000000000000000000000000082167f01ffc9a700000000000000000000000000000000000000000000000000000000145b92915050565b600061019461038c565b905090565b60006101bf6101a661018a565b73ffffffffffffffffffffffffffffffffffffffff1690565b90506101c961018a565b6040517f6352211e00000000000000000000000000000000000000000000000000000000815263ffffffff8416600482015273ffffffffffffffffffffffffffffffffffffffff91821691851690636352211e90602401602060405180830381865afa15801561023d573d6000803e3d6000fd5b505050506040513d601f19601f82011682018060405250810190610261919061131d565b73ffffffffffffffffffffffffffffffffffffffff16146102e3576040517f08c379a000000000000000000000000000000000000000000000000000000000815260206004820152600d60248201527f696e76616c6964206f776e65720000000000000000000000000000000000000060448201526064015b60405180910390fd5b6102ed83836103be565b15610354576040517f08c379a000000000000000000000000000000000000000000000000000000000815260206004820152600f60248201527f616c726561647920636c61696d6564000000000000000000000000000000000060448201526064016102da565b610360838360016104e3565b61037d8161036d83610615565b610378906001611369565b6106ee565b505050565b60006101946107f5565b7fffffffffffffffffffffffffffffffffffffffffffffffffffffffffffffffcc36013560601c806103bb5750335b90565b604080516002808252606082018352600092839291906020830190803683370190505090508373ffffffffffffffffffffffffffffffffffffffff1660001b816000815181106104105761041061138d565b6020026020010181815250508263ffffffff1660001b816001815181106104395761043961138d565b60209081029190910181019190915260408051613a3160f11b928101929092526000602283018190527f436c61696d6564000000000000000000000000000000000000000000000000006030840152916104ce91016040516020818303038152906040526104a6906113bc565b8360007e01010001000000000000000000000000000000000000000000000000000000610841565b90506104da8160f81c90565b95945050505050565b6040805160028082526060820183526000926020830190803683370190505090508373ffffffffffffffffffffffffffffffffffffffff1660001b816000815181106105315761053161138d565b6020026020010181815250508263ffffffff1660001b8160018151811061055a5761055a61138d565b60209081029190910181019190915260408051613a3160f11b81840152600060228201527f436c61696d6564000000000000000000000000000000000000000000000000006030820152815180820390930183528101905261060f906105bf906113bc565b826000856040516020016105da91151560f81b815260010190565b60408051601f198184030181529190527e01010001000000000000000000000000000000000000000000000000000000610920565b50505050565b60408051600180825281830190925260009182919060208083019080368337019050509050828160008151811061064e5761064e61138d565b60209081029190910181019190915260408051613a3160f11b928101929092526000602283018190527f436f696e730000000000000000000000000000000000000000000000000000006030840152916106e391016040516020818303038152906040526106bb906113bc565b8360007e04010004000000000000000000000000000000000000000000000000000000610841565b60e01c949350505050565b6040805160018082528183019092526000916020808301908036833701905050905082816000815181106107245761072461138d565b60209081029190910181019190915260408051613a3160f11b81840152600060228201527f436f696e730000000000000000000000000000000000000000000000000000006030820152815180820390930183528101905261037d90610789906113bc565b6040517fffffffff0000000000000000000000000000000000000000000000000000000060e086901b166020820152839060009060240160408051601f198184030181529190527e04010004000000000000000000000000000000000000000000000000000000610920565b7f629a4c26e296b22a8e0856e9f6ecb2d1008d7e00081111962cd175fa7488e1755460009073ffffffffffffffffffffffffffffffffffffffff168061083c573391505090565b919050565b60008061084c6107f5565b90503073ffffffffffffffffffffffffffffffffffffffff82160361087f57610877868686866109f0565b915050610918565b6040517f8c364d5900000000000000000000000000000000000000000000000000000000815273ffffffffffffffffffffffffffffffffffffffff821690638c364d59906108d790899089908990899060040161141e565b602060405180830381865afa1580156108f4573d6000803e3d6000fd5b505050506040513d601f19601f82011682018060405250810190610877919061144d565b949350505050565b600061092a6107f5565b90503073ffffffffffffffffffffffffffffffffffffffff82160361095b576109568686868686610a1d565b6109e8565b6040517f390baae000000000000000000000000000000000000000000000000000000000815273ffffffffffffffffffffffffffffffffffffffff82169063390baae0906109b590899089908990899089906004016114ac565b600060405180830381600087803b1580156109cf57600080fd5b505af11580156109e3573d6000803e3d6000fd5b505050505b505050505050565b60006104da6109ff8686610a39565b60ff858116601b0360080285901c16610a188587610a8f565b610ad2565b610a328585610a2c8487610a8f565b85610b23565b5050505050565b60008282604051602001610a4e9291906114f3565b60408051601f1981840301815291905280516020909101207f86425bff6b57326c7859e89024fe4f238ca327a1ae4a230180dd2f0e88aaa7d9189392505050565b600080805b8360ff16811015610aca57610ab660ff601b83900360080287901c168361152e565b915080610ac281611541565b915050610a94565b509392505050565b600060208210610af857602082048401935060208281610af457610af461155b565b0691505b508254600882021b602082900380841115610aca576001850154600882021c82179150509392505050565b6000610b2f8585610a39565b9050847f8c0b5119d4cec7b284c6b1b39252a03d1e2f2d7451a5895562524c113bb952be858585604051610b659392919061158a565b60405180910390a2613a3160f11b857fffff0000000000000000000000000000000000000000000000000000000000001614610ba1575061060f565b6000610bac86610d85565b905060005b8151811015610c8b576000828281518110610bce57610bce61138d565b60200260200101519050610bfa6004826affffffffffffffffffffff1916610e6590919063ffffffff16565b15610c78576040517f964f667d000000000000000000000000000000000000000000000000000000008152606082901c9063964f667d90610c45908b908b908b908b906004016115c7565b600060405180830381600087803b158015610c5f57600080fd5b505af1158015610c73573d6000803e3d6000fd5b505050505b5080610c8381611541565b915050610bb1565b50610c9f828565ffffffffffff1685610e83565b60005b8151811015610d7c576000828281518110610cbf57610cbf61138d565b60200260200101519050610ceb6008826affffffffffffffffffffff1916610e6590919063ffffffff16565b15610d69576040517fa8ba8721000000000000000000000000000000000000000000000000000000008152606082901c9063a8ba872190610d36908b908b908b908b906004016115c7565b600060405180830381600087803b158015610d5057600080fd5b505af1158015610d64573d6000803e3d6000fd5b505050505b5080610d7481611541565b915050610ca2565b50505050505050565b60408051600180825281830190925260609160009190602080830190803683370190505090508281600081518110610dbf57610dbf61138d565b60209081029190910181019190915260408051613a3160f11b818401527f73746f726500000000000000000000000000000000000000000000000000000060228201527f53746f7265486f6f6b730000000000000000000000000000000000000000000060308201528151808203909301835281019052600090610e4e90610e46906113bc565b836000610e93565b9050610918610e608260008451610ecd565b610f5d565b60008160ff1682610e768560581c90565b1660ff1614905092915050565b61037d8383602084018451610f75565b6060610918610ea3858585611035565b610ec684610eb188886110b5565b9060ff166028026038011c64ffffffffff1690565b60006110c8565b6000818311158015610ee0575083518211155b610f1c578383836040517f23230fa30000000000000000000000000000000000000000000000000000000081526004016102da9392919061160b565b60208401610f2a848261152e565b90506000610f388585611630565b6fffffffffffffffffffffffffffffffff1660809290921b9190911795945050505050565b60606000610f6e83601560006110eb565b9392505050565b8215610fef5760208310610f9f57602083048401935060208381610f9b57610f9b61155b565b0692505b8215610fef5760208390036000600019600884021c1990506008850281811c91508451811c9050811987541682821617875550818311610fe057505061060f565b50600194909401939182019190035b5b602081106110115781518455600190930192602090910190601f1901610ff0565b801561060f576000600019600883021c198554845182169119161785555050505050565b6000838360405160200161104a9291906114f3565b604051602081830303815290604052805190602001208260f81b7effffffffffffffffffffffffffffffffffffffffffffffffffffffffffffff19167f3b4102da22e32d82fc925482184f16c09fd4281692720b87d124aef6da48a0f1181860001c90509392505050565b6000610f6e6110c48484611166565b5490565b60405160208101601f19603f8584010116604052838252610aca858585846111bc565b606060006110f98560801c90565b90506fffffffffffffffffffffffffffffffff8516600085828161111f5761111f61155b565b04905060405193506020840160208202810160405281855260005b8281101561115a578451871c82529387019360209091019060010161113a565b50505050509392505050565b6000828260405160200161117b9291906114f3565b60408051601f1981840301815291905280516020909101207f14e2fcc58e58e68ec7edc30c8d50dccc3ce2714a623ec81f46b6a63922d76569189392505050565b811561122e57602082106111e6576020820484019350602082816111e2576111e261155b565b0691505b811561122e5760208290036000600019600883021c1990508554600885021b81198451168282161784525081851161121f57505061060f565b50600194909401939283900392015b5b602083106112505783548152600190930192601f199092019160200161122f565b821561060f576000600019600885021c198251865482169119161782525050505050565b60006020828403121561128657600080fd5b81357fffffffff0000000000000000000000000000000000000000000000000000000081168114610f6e57600080fd5b73ffffffffffffffffffffffffffffffffffffffff811681146112d857600080fd5b50565b600080604083850312156112ee57600080fd5b82356112f9816112b6565b9150602083013563ffffffff8116811461131257600080fd5b809150509250929050565b60006020828403121561132f57600080fd5b8151610f6e816112b6565b7f4e487b7100000000000000000000000000000000000000000000000000000000600052601160045260246000fd5b63ffffffff8181168382160190808211156113865761138661133a565b5092915050565b7f4e487b7100000000000000000000000000000000000000000000000000000000600052603260045260246000fd5b805160208083015191908110156113dd576000198160200360031b1b821691505b50919050565b600081518084526020808501945080840160005b83811015611413578151875295820195908201906001016113f7565b509495945050505050565b84815260806020820152600061143760808301866113e3565b60ff949094166040830152506060015292915050565b60006020828403121561145f57600080fd5b5051919050565b6000815180845260005b8181101561148c57602081850181015186830182015201611470565b506000602082860101526020601f19601f83011685010191505092915050565b85815260a0602082015260006114c560a08301876113e3565b60ff8616604084015282810360608401526114e08186611466565b9150508260808301529695505050505050565b82815260006020808301845182860160005b8281101561152157815184529284019290840190600101611505565b5091979650505050505050565b808201808211156101845761018461133a565b600060001982036115545761155461133a565b5060010190565b7f4e487b7100000000000000000000000000000000000000000000000000000000600052601260045260246000fd5b60608152600061159d60608301866113e3565b65ffffffffffff8516602084015282810360408401526115bd8185611466565b9695505050505050565b8481526080602082015260006115e060808301866113e3565b65ffffffffffff8516604084015282810360608401526116008185611466565b979650505050505050565b60608152600061161e6060830186611466565b60208301949094525060400152919050565b818103818111156101845761018461133a56fea2646970667358221220b0f4be122b9b21c12ae6f2a8be6817de21c188965a8cb8842b38dcdd04b9501164736f6c63430008150033",
    "linkReferences": {}
  },
  "methodIdentifiers": {
    "_msgSender()": "119df25f",
    "_msgValue()": "45ec9354",
    "_world()": "e1af802c",
    "claim(address,uint32)": "c6a56990",
    "supportsInterface(bytes4)": "01ffc9a7"
  },
  "id": 138
}